:020000040800F2
:10000000100400209D010008650300081B03000880
:1000100061030008E5010008A505000800000000D4
:10002000000000000000000000000000890300083C
:10003000250200080000000067030008790400089A
:10004000B7010008B7010008B7010008B7010008B0
:10005000B7010008B7010008B7010008B7010008A0
:10006000B7010008B7010008B7010008B701000890
:10007000B7010008B7010008B7010008B701000880
:10008000B7010008B7010008B7010008B701000870
:10009000B7010008B7010008B7010008B701000860
:1000A000B7010008B7010008B7010008B701000850
:1000B000F1040008B7010008B7010008B701000803
:1000C000B7010008B7010008B7010008B701000830
:1000D000B7010008F5040008B7010008B7010008DF
:1000E00029020008B7010008B7010008B70100089D
:1000F000B7010008B7010008B7010008B701000800
:10010000B7010008B7010008F3040008B7010008B0
:10011000B7010008B7010008B7010008B7010008DF
:10012000B7010008B7010008B7010008B7010008CF
:10013000B7010008B7010008B7010008B7010008BF
:10014000B7010008B7010008B7010008B7010008AF
:10015000B7010008B7010008B7010008B70100089F
:10016000B7010008B7010008B7010008B70100088F
:10017000B7010008B7010008B7010008B70100087F
:10018000B7010008B7010008DFF80CD000F018F83C
:1001900000480047D10700081004002006488047A7
:1001A00006480047FEE7FEE7FEE7FEE7FEE7FEE75C
:1001B000FEE7FEE7FEE7FEE7890400088901000884
:1001C000064C074D06E0E06840F0010394E80700A4
:1001D00098471034AC42F6D3FFF7DAFFC0080008A6
:1001E000E008000800BFFEE71CB50121202000F058
:1001F000BBF84020009001208DF804008DF8060027
:1002000003208DF8050000208DF80700694604489A
:1002100000F02EF84021024800F07DF81CBD0000DF
:10022000001402407047000010B54FF4006000F069
:1002300013F8012807D10121034800F06AF84FF4B0
:10024000006000F003F810BD00080240014908609A
:1002500070470000143C014001460020034A126828
:100260000A400AB1012000E000207047143C014020
:10027000F0B50A4600210023002400BF3DE001251F
:1002800005FA01F3156805EA03049C4234D10568B8
:100290004F000326BE40B543056015794E00B540BA
:1002A0000668354305601579012D02D01579022DB8
:1002B00016D185684F000326BE40B5438560557949
:1002C0004E00B540866835438560456801268E40FE
:1002D000B5434560456896798E40B6B23543456072
:1002E000C5684F000326BE40B543C560D5794E00B2
:1002F000B540C6683543C560491C1029BFD3F0BD61
:100300000246002013690B400BB1012000E00020E1
:100310007047418370470183704700BFFEE70000CC
:100320001CB50121202000F01FF84FF4F060009070
:1003300001208DF8040000208DF8060003208DF8C0
:10034000050000208DF8070069460448FFF790FF7C
:100350004FF4F0610148FFF7DEFF1CBD00140240BE
:1003600000BFFEE77047704729B1064A1268024392
:10037000044B1A6004E0034A12688243014B1A607E
:100380007047000030380240704700000CB5002074
:10039000019000903448006840F480303249086091
:1003A00000BF3148006800F4003000900198401C04
:1003B0000190009818B90198B0F5A04FF1D12A48E2
:1003C000006800F4003010B10120009001E000202E
:1003D00000900098012846D123484030006840F042
:1003E00080502149403108602048006840F4404076
:1003F0001E4908601C48083000681B490831086025
:100400000846006840F4004008600846006840F470
:10041000A05008601648091F0860081F006840F0D7
:100420008070091F086000BF0F48006800F000706E
:100430000028F9D040F205700E4908600A480830DB
:10044000006820F003000849083108600846006889
:1004500040F00200086000BF03480830006800F068
:100460000C000828F8D10CBD003802400070004094
:1004700019544007003C024002480088401C0149D2
:10048000088070470000002010B51548006840F44F
:100490007000134908601348006840F001001149DA
:1004A000086000200F49083108600E4800680E49B6
:1004B00008400C4908600D48091D0860081F0068C5
:1004C00020F48020091F0860002006490C310860D4
:1004D000FFF75CFF4FF0006001498039086010BDF4
:1004E00088ED00E000380240FFFFF6FE10300024E7
:1004F0007047704710B540F225510B4800F023F8C3
:1005000020B1094800F049F80849087040F2266116
:10051000054800F018F830B14021034800F00AF80F
:1005200001200349087010BD0010014002000020A6
:100530000300002001F40072B2F5007F00D100BF7B
:10054000CA430280704770B502460024002300258C
:10055000002040F66A16B14200D100BFC1F3421537
:1005600001F01F03012606FA03F3012D02D196893B
:10057000334006E0022D02D1168A334001E0968A0C
:1005800033400C12012606FA04F41688344013B1E5
:100590000CB1012000E0002070BD01468888C0F346
:1005A0000800704700BFFEE702E008C8121F08C13C
:1005B000002AFAD170477047002001E001C1121FE4
:1005C000002AFBD1704700004FF0E021096921F0BB
:1005D00004014FF0E0221161C21700EB5272C2F326
:1005E000C702074B1A701946097801EB4102C2EBAA
:1005F000C1114FF6FF7202EAC101024A1180704731
:10060000060000200800002070B504464FF4077073
:1006100094FBF0F0C6B24FF4077094FBF0F100FBCE
:10062000114085B205E04FF4077000F009F8701E24
:10063000C6B2002EF7D115B1284600F001F870BD02
:1006400001460D4A12884A434FF0E0235A610022C6
:100650009A6101221A6100BF4FF0E022106900F098
:1006600001021AB100F48032002AF5D000224FF0C6
:10067000E0231A619A617047080000201CB501212F
:100680000846FFF771FE00208DF8040003208DF866
:10069000050001208DF807002120009069461548CB
:1006A000FFF7E6FD01212020FFF75EFE00208DF818
:1006B000040003208DF8050001208DF80700C0021A
:1006C000009069460C48FFF7D3FD01210420FFF795
:1006D0004BFE00208DF8040003208DF8050001205A
:1006E0008DF807004003009069460448FFF7C0FDFD
:1006F0001CBD00000000024000140240000802403F
:1007000010B50446012C01D12D4908702C48007801
:10071000002839D020212B48FFF7F2FD80B14FF49B
:1007200000612948FFF7ECFD50B14FF40051274814
:10073000FFF7E6FD20B101212248FFF7E1FD18BBDC
:100740000A20FFF761FF00201D49087020211D4885
:10075000FFF7D6FD08B9012010BD4FF400611A481B
:10076000FFF7CEFD08B90220F6E74FF40051174815
:10077000FFF7C6FD08B90320EEE701211148FFF796
:10078000BFFDD8B90420E7E720210E48FFF7B8FDE8
:10079000012813D1C1020C48FFF7B2FD01280DD189
:1007A00041030A48FFF7ACFD012807D101210548A4
:1007B000FFF7A6FD012801D1014908700020CBE711
:1007C0000400002000000240001402400008024023
:1007D0000024FFF709FDFFF751FFFFF7A1FDA82057
:1007E000FFF7F2FE69E00020FFF78AFF0446002CC5
:1007F00063D0012C06D0022C11D0032C2CD0042C59
:100800005AD14AE040212D48FFF783FD4FF47A701A
:10081000FFF7FAFE40212948FFF77DFD4CE040211B
:100820002648FFF776FD4FF4FA60FFF7EDFE402112
:100830002248FFF770FD4FF47A70FFF7E5FE402184
:100840001E48FFF766FD40F6B830FFF7DDFE402199
:100850001A48FFF760FD2FE04FF4C0611748FFF71B
:1008600058FD4FF47A70FFF7CFFE4FF4C061134884
:10087000FFF751FD4FF47A70FFF7C6FE4FF4C071D9
:100880000E48FFF746FD4FF47A70FFF7BDFE4FF4B8
:10089000C0710A48FFF73FFD0EE04FF4F0610748D2
:1008A000FFF737FD4FF47A70FFF7AEFE4FF4F061BB
:1008B0000248FFF730FD00BF00BF94E7001402407C
:1008C000E0080008000000200C000000A805000857
:1008D000EC0800080C00002004040000B805000823
:0C08E0000000000001000000000000000B
:040000050800018965
:00000001FF
